{"abi":[{"type":"constructor","inputs":[{"name":"_implementation","type":"address","internalType":"address"}],"stateMutability":"nonpayable"},{"type":"function","name":"changeImplementation","inputs":[{"name":"_implementation","type":"address","internalType":"address"}],"outputs":[],"stateMutability":"nonpayable"},{"type":"function","name":"num","inputs":[],"outputs":[{"name":"","type":"uint256","internalType":"uint256"}],"stateMutability":"view"},{"type":"function","name":"setNumTo2","inputs":[{"name":"_num","type":"uint256","internalType":"uint256"}],"outputs":[],"stateMutability":"nonpayable"}],"bytecode":{"object":"0x6080604052348015600f57600080fd5b5060405161033b38038061033b833981016040819052602c91605d565b60008055600180546001600160a01b039092166001600160a01b03199283161790556002805490911633179055608b565b600060208284031215606e57600080fd5b81516001600160a01b0381168114608457600080fd5b9392505050565b6102a18061009a6000396000f3fe608060405234801561001057600080fd5b50600436106100415760003560e01c806317a68dd8146100465780634e70b1dc1461005b57806371715ad014610076575b600080fd5b6100596100543660046101f3565b610089565b005b61006460005481565b60405190815260200160405180910390f35b610059610084366004610223565b610116565b6002546001600160a01b031633146100f45760405162461bcd60e51b815260206004820152602360248201527f4f6e6c79204f776e65722063616e20696e766f6b6520746869732066756e637460448201526234b7b760e91b60648201526084015b60405180910390fd5b600180546001600160a01b0319166001600160a01b0392909216919091179055565b600154604051602481018390526000916001600160a01b03169060440160408051601f198184030181529181526020820180516001600160e01b031663cd16ecbf60e01b17905251610168919061023c565b600060405180830381855af49150503d80600081146101a3576040519150601f19603f3d011682016040523d82523d6000602084013e6101a8565b606091505b50509050806101ef5760405162461bcd60e51b815260206004820152601360248201527219195b1959d85d1958d85b1b0819985a5b1959606a1b60448201526064016100eb565b5050565b60006020828403121561020557600080fd5b81356001600160a01b038116811461021c57600080fd5b9392505050565b60006020828403121561023557600080fd5b5035919050565b6000825160005b8181101561025d5760208186018101518583015201610243565b50600092019182525091905056fea26469706673582212209ee047e2338523cf086d82b98e9d624e8ef0786fc6928795283a5d363c4f8e0a64736f6c634300081b0033","linkReferences":{}},"methodIdentifiers":{"changeImplementation(address)":"17a68dd8","num()":"4e70b1dc","setNumTo2(uint256)":"71715ad0"},"id":23}