{"abi":[{"type":"function","name":"num","inputs":[],"outputs":[{"name":"","type":"uint256","internalType":"uint256"}],"stateMutability":"view"}],"bytecode":{"object":"0x6080604052348015600f57600080fd5b50607d80601d6000396000f3fe6080604052348015600f57600080fd5b506004361060285760003560e01c80634e70b1dc14602d575b600080fd5b603560005481565b60405190815260200160405180910390f3fea2646970667358221220bb5762f7663687915b73086452586e47650e9155fd59a72215774042fe7334df64736f6c634300081b0033","linkReferences":{}},"methodIdentifiers":{"num()":"4e70b1dc"},"id":23}