{"abi":[{"type":"function","name":"num","inputs":[],"outputs":[{"name":"","type":"uint256","internalType":"uint256"}],"stateMutability":"view"},{"type":"function","name":"setNum","inputs":[{"name":"_num","type":"uint256","internalType":"uint256"}],"outputs":[],"stateMutability":"nonpayable"}],"bytecode":{"object":"0x6080604052348015600f57600080fd5b5060e98061001e6000396000f3fe6080604052348015600f57600080fd5b506004361060325760003560e01c80634e70b1dc146037578063cd16ecbf146051575b600080fd5b603f60005481565b60405190815260200160405180910390f35b6060605c3660046071565b6062565b005b606b8160026089565b60005550565b600060208284031215608257600080fd5b5035919050565b808202811582820484141760ad57634e487b7160e01b600052601160045260246000fd5b9291505056fea26469706673582212201f7029c65d4ac62ffadfcdd66b61580e56064761be5484a59f12728e5f089d6064736f6c634300081b0033","linkReferences":{}},"methodIdentifiers":{"num()":"4e70b1dc","setNum(uint256)":"cd16ecbf"},"id":23}