{"abi":[{"type":"function","name":"num","inputs":[],"outputs":[{"name":"","type":"uint256","internalType":"uint256"}],"stateMutability":"view"},{"type":"function","name":"setNum","inputs":[{"name":"_num","type":"uint256","internalType":"uint256"}],"outputs":[],"stateMutability":"nonpayable"}],"bytecode":{"object":"0x6080604052348015600f57600080fd5b5060b180601d6000396000f3fe6080604052348015600f57600080fd5b506004361060325760003560e01c80634e70b1dc146037578063cd16ecbf146051575b600080fd5b603f60005481565b60405190815260200160405180910390f35b6061605c3660046063565b600055565b005b600060208284031215607457600080fd5b503591905056fea26469706673582212207204acdf20e6db7597393c6bb5a1a113f487e7deec34404b62ed9381d069766a64736f6c634300081b0033","linkReferences":{}},"methodIdentifiers":{"num()":"4e70b1dc","setNum(uint256)":"cd16ecbf"},"id":23}