{"abi":[{"type":"function","name":"num","inputs":[],"outputs":[{"name":"","type":"uint256","internalType":"uint256"}],"stateMutability":"view"},{"type":"function","name":"setNum","inputs":[{"name":"_num","type":"uint256","internalType":"uint256"}],"outputs":[],"stateMutability":"nonpayable"}],"bytecode":{"object":"0x6080604052348015600f57600080fd5b5060b180601d6000396000f3fe6080604052348015600f57600080fd5b506004361060325760003560e01c80634e70b1dc146037578063cd16ecbf146051575b600080fd5b603f60005481565b60405190815260200160405180910390f35b6061605c3660046063565b600055565b005b600060208284031215607457600080fd5b503591905056fea2646970667358221220b5850cc8b5328b9872e6657311bb76ff1bf57af06e06429fbc93d91c149de5bb64736f6c634300081b0033","linkReferences":{}},"methodIdentifiers":{"num()":"4e70b1dc","setNum(uint256)":"cd16ecbf"},"id":24}